:100000000C942E000C944B000C944B000C94E801C3
:100010000C944B000C944B000C944B000C940E026F
:100020000C944B000C944B000C944B000C944B0024
:100030000C944B000C944B000C944B000C944B0014
:100040000C944B000C944B000C944B000C944B0004
:100050000C944B000C944B000C944B0011241FBECD
:10006000CFEFD4E0DEBFCDBF11E0A0E0B1E0EEEA1B
:10007000F7E002C005900D92AC30B107D9F723E04C
:10008000ACE0B1E001C01D92A133B207E1F70E94DC
:1000900034020C94D5030C940000CFEED0E011E0B4
:1000A00088818127888384E091E00E940003F8CF53
:1000B00080EC8093E40087EB8093E50087E08093F9
:1000C000E6008FE08093E700089580E885B980938B
:1000D0006C008DBB08958DE08093810082E0809359
:1000E0006F0082E49FE090938900809388001092D3
:1000F0008500109284000895CF93DF93CDB7DEB7CB
:1001000064970FB6F894DEBF0FBECDBF90ED980F89
:100110009A3090F521E535E13A83298320E131E0F9
:100120003C832B8321EE31E13E832D8321EB31E1B2
:1001300038872F8320EB35E03A87298721EB34E19C
:100140003C872B8721EF34E13E872D8720E131E189
:10015000388B2F8721EF35E13A8B298B20EB35E166
:100160003C8B2B8BE82FF0E0F097EE0FFF1FEC0F8E
:10017000FD1F8181928102C080E090E064960FB6FD
:10018000F894DEBF0FBECDBFDF91CF910895CF931E
:10019000DF93EB0166307105D8F50E947C00FE010B
:1001A000F595E795C0FD11C0592F52955F70492F05
:1001B0004F709C01329522952F7023273F70232783
:1001C000322F3F708F7090EF10C0592F507F9C01DD
:1001D000329522952F7023273F702327422F407F8F
:1001E000382F307F8295807F9FE0FF27E451FF4FBB
:1001F00020812923252B208325812923242B258336
:1002000022852923232B228727859223892B8787E1
:10021000DF91CF9108954F925F926F927F928F926C
:100220009F92AF92BF92CF92DF92EF92FF920F9385
:100230001F93CF93DF932B013C0199232CF42FEFD5
:10024000421A520A620A720A759467945794479444
:100250005301420122E0421651046104710418F175
:10026000C62FD72F182F092F60FF2FC0C12CD12CDC
:1002700076016894C1F80CC06C2F7D2F812F902FD0
:10028000A70196010E945303672B682B692BF9F095
:100290008FEFC81AD80AE80AF80A8C149D04AE0435
:1002A000BF0450F705C0C12CD12C76016894C1F869
:1002B0002FEF421A520A620A720A81E0C414D5046E
:1002C000E604F70429F080E003C080E001C080E08C
:1002D000DF91CF911F910F91FF90EF90DF90CF9022
:1002E000BF90AF909F908F907F906F905F904F9056
:1002F0000895CF92DF92EF92FF920F931F93CF93C7
:10030000DF9300D0CDB7DEB76B017C018A0124E614
:1003100030E040E050E00E9475032AE030E040E029
:1003200050E00E947503B80180E3820F0E94C7006D
:100330001A82198289819A81883E934054F4898176
:100340009A8101969A83898389819A81883E934014
:10035000B4F30F5F1F4FC701B6012AE030E040E061
:1003600050E00E947503862FB801805D0E94C7008F
:100370000F900F90DF91CF911F910F91FF90EF9011
:10038000DF90CF900895C0E0D0E02196BE0180E0DC
:1003900090E043E050E00E94790180E091E00E940B
:1003A0000003F3CFEC01C12CD12C7601C394C7011B
:1003B000B6010E940B01882329F0AE01C701B601E6
:1003C0000E9479018FEFC81AD80AE80AF80AEFCF1D
:1003D0001F920F920FB60F9211242F933F934F93BA
:1003E0005F936F937F938F939F93AF93BF93EF939D
:1003F000FF9380E091E00E942A03FF91EF91BF916B
:10040000AF919F918F917F916F915F914F913F91AC
:100410002F910F900FBE0F901F9018951F920F9263
:100420000FB60F9211242F933F934F935F936F93C7
:100430007F938F939F93AF93BF93EF93FF9384E04A
:1004400091E00E942A03FF91EF91BF91AF919F919C
:100450008F917F916F915F914F913F912F910F906D
:100460000FBE0F901F901895E1E6F0E080E88083C2
:1004700010820E9458000E9465000E946B0060E09C
:1004800070E083EC91E00E946F0260E070E08DE428
:1004900090E00E946F0280E090E00E94D201CF9332
:1004A000DF9300D0CDB7DEB79A83898380910801AE
:1004B0009091090106960E949403892B59F4898131
:1004C0009A81909309018093080161E070E006969B
:1004D0000E94B4030F900F90DF91CF910895CF93B6
:1004E000DF9300D0CDB7DEB7F89420910C013091A6
:1004F0000D01232BE1F42AEE31E0309382012093A9
:10050000810127E532E03093EF012093EE0124ECE6
:1005100032E030935C0220935B021092C902109289
:10052000C80221E030E030930D0120930C012091AE
:100530000A0130910B013A832983232BA9F0E98129
:10054000FA814481558150930B0140930A019183B4
:1005500080837383628315821482CF0106960E9482
:100560009403019779F501C0FFCF7894A091080119
:10057000B0910901ED91FC91119712968D919C918A
:1005800013970995F894E0910801F0910901809181
:100590000A0190910B01F0930B01E0930A019583FE
:1005A000848380910E0190910F01009751F0FC011E
:1005B0002481358130930F0120930E010E944F0258
:1005C00001C0FFCFE981FA81369689819A818759E6
:1005D0009F4F918B808B938B828B80910E0190919A
:1005E0000F0129813A8130930F0120930E01F90107
:1005F0009583848378940F900F90DF91CF91089525
:10060000FC01F89480819181892B29F481E090E0AC
:10061000918380831DC0A0910801B091090182815E
:100620009381B383A28315969C938E9314978091A4
:100630000E0190910F01009751F0FC01248135814A
:1006400030930F0120930E010E944F0201C0FFCF93
:1006500078940895FC01F89482819381892BF9F0B4
:10066000A0910801B091090180910E0190910F01B4
:10067000B0930F01A0930E0115969C938E9314973F
:1006800082819381009751F0DC0114962D913C9169
:100690001597338322830E944F0203C0FFCF11823C
:1006A000108278940895A1E21A2EAA1BBB1BFD01AB
:1006B0000DC0AA1FBB1FEE1FFF1FA217B307E40741
:1006C000F50720F0A21BB30BE40BF50B661F771F99
:1006D000881F991F1A9469F7609570958095909579
:1006E0009B01AC01BD01CF010895052E97FB1EF4BF
:1006F00000940E948C0357FD07D00E94530307FC0F
:1007000003D04EF40C948C03509540953095219570
:100710003F4F4F4F5F4F089590958095709561952D
:100720007F4F8F4F9F4F0895DC012D923D924D9248
:100730005D926D927D928D929D92AD92BD92CD9281
:10074000DD92ED92FD920D931D93CD93DD93FF917C
:10075000EF918DB78D938EB78D938FB78D93ED936A
:10076000FD93882799270994DC01CB0181309105FD
:10077000811D2D903D904D905D906D907D908D9060
:100780009D90AD90BD90CD90DD90ED90FD900D9140
:100790001D91CD91DD91ED91FD910D90F894FEBFED
:0E07A0000FBEEDBFED91FD910994F894FFCFCF
:0C07AE00010000000100000010017D01AE
:00000001FF
