S0150000416C7465726E617469766520322E737265633E
S11300000C942E000C944B000C944B000C94160290
S11300100C944B000C944B000C944B000C94EE018C
S11300200C944B000C944B000C944B000C944B0020
S11300300C944B000C944B000C944B000C944B0010
S11300400C944B000C944B000C944B000C944B0000
S11300500C944B000C944B000C944B0011241FBEC9
S1130060CFEFD4E0DEBFCDBF11E0A0E0B1E0E6E722
S1130070F8E002C005900D92A031B107D9F723E052
S1130080A0E1B1E001C01D92A633B207E1F70E94DE
S11300903E020C9439040C940000F12C0DEE10E097
S11300A0CCEED0E06894BB24B2F8C12C6894DD2473
S11300B0D1F8EE24E39480E091E00E945203F11021
S11300C009C0F80180818D25808388818B7F888396
S11300D0FE2CF1CFF80180818D7F808388818B2570
S11300E08883FC2CE8CFCFEED0E011E084E091E0EF
S11300F00E9452038881812788830E94B403F6CF2B
S113010080EC8093E40087EB8093E50087E08093A4
S1130110E6008FE08093E7000895CF93DF93CDB797
S1130120DEB764970FB6F894DEBF0FBECDBF90ED77
S1130130980F9A3090F521E535E13A83298320E13F
S113014031E03C832B8321EE31E13E832D8321EB8F
S113015031E138872F8320EB35E03A87298721EB7B
S113016034E13C872B8721EF34E13E872D8720E162
S113017031E1388B2F8721EF35E13A8B298B20EB46
S113018035E13C8B2B8BE82FF0E0F097EE0FFF1F4F
S1130190EC0FFD1F8181928102C080E090E06496A3
S11301A00FB6F894DEBF0FBECDBFDF91CF91089597
S11301B0CF93DF93EB0166307105D8F50E948D0073
S11301C0FE01F595E795C0FD11C0592F52955F705A
S11301D0492F4F709C01329522952F7023273F7031
S11301E02327322F3F708F7090EF10C0592F507F0C
S11301F09C01329522952F7023273F702327422F8D
S1130200407F382F307F8295807F9FE0FF27E45125
S1130210FF4F20812923252B208325812923242B6B
S1130220258322852923232B228727859223892B23
S11302308787DF91CF9108954F925F926F927F925B
S11302408F929F92AF92BF92CF92DF92EF92FF92E2
S11302500F931F93CF93DF932B013C0199232CF42D
S11302602FEF421A520A620A720A759467945794DD
S113027047945301420122E042165104610471047F
S113028018F1C62FD72F182F092F60FF2FC0C12CAC
S1130290D12C76016894C1F80CC06C2F7D2F812F6E
S11302A0902FA70196010E94B703672B682B692B37
S11302B0F9F08FEFC81AD80AE80AF80A8C149D04DA
S11302C0AE04BF0450F705C0C12CD12C760168944C
S11302D0C1F82FEF421A520A620A720A81E0C4146A
S11302E0D504E604F70429F080E003C080E001C0EF
S11302F080E0DF91CF911F910F91FF90EF90DF90FD
S1130300CF90BF90AF909F908F907F906F905F90B1
S11303104F900895CF92DF92EF92FF920F931F9325
S1130320CF93DF9300D0CDB7DEB76B017C018A0198
S113033024E630E040E050E00E94D9032AE030E0B7
S113034040E050E00E94D903B80180E3820F0E948C
S1130350D8001A82198289819A81883E934054F484
S113036089819A8101969A83898389819A81883EB9
S11303709340B4F30F5F1F4FC701B6012AE030E08A
S113038040E050E00E94D903862FB801805D0E94AE
S1130390D8000F900F90DF91CF911F910F91FF9094
S11303A0EF90DF90CF900895EC01C12CD12C760111
S11303B0C39488E091E00E945203C701B6010E94F1
S11303C01C01882329F0AE01C701B6010E948A01ED
S11303D08FEFC81AD80AE80AF80AEBCF1F920F92D7
S11303E00FB60F9211242F933F934F935F936F9304
S11303F07F938F939F93AF93BF93EF93FF9384E087
S113040091E00E9482030E942A03FF91EF91BF9121
S1130410AF919F918F917F916F915F914F913F9198
S11304202F910F900FBE0F901F9018951F920F924F
S11304300FB60F9211242F933F934F935F936F93B3
S11304407F938F939F93AF93BF93EF93FF9380E03A
S113045091E00E9482030E942A03FF91EF91BF91D1
S1130460AF919F918F917F916F915F914F913F9148
S11304702F910F900FBE0F901F9018950E9480002F
S113048080E885B960E070E08DE490E00E9472023B
S113049060E070E083E790E00E94720280E090E008
S11304A00E94D401CF93DF9300D0CDB7DEB79A83F7
S11304B0898380910C0190910D0106960E94F803A6
S11304C0892B59F489819A8190930D0180930C01B1
S11304D061E070E006960E9418040F900F90DF917F
S11304E0CF910895CF93DF9300D0CDB7DEB7F894C2
S11304F02091100130911101232B81F52FEE31E071
S113050030938701209386012CE532E03093F40187
S11305102093F30129EC32E03093610220936002CE
S11305201092CE021092CD0220E820936C002DBBD5
S11305302DE02093810022E020936F0022E43FE02D
S113054030938900209388001092850010928400D3
S113055021E030E0309311012093100120910E012D
S113056030910F013A832983232BA9F0E981FA8181
S11305704481558150930F0140930E0191838083F0
S11305807383628315821482CF0106960E94F80356
S11305900197C1F501C0FFCF7894A0910C01B091EF
S11305A00D01ED91FC91119712968D919C911397E9
S11305B00995F894E0910C01F0910D0115821482D3
S11305C080910E0190910F01009729F4F0930F018F
S11305D0E0930E0106C095838483F0930F01E093AA
S11305E00E018091130190911401009751F0FC01C8
S11305F02481358130931401209313010E94520207
S113060001C0FFCFE981FA81369689819A818759A1
S11306109F4F918B808B938B828BE981FA8115821A
S113062014828091130190911401009729F4F0939E
S11306301401E093130108C0E981FA81958384834E
S1130640F0931401E093130178940F900F90DF91CD
S1130650CF910895E0910C01F0910D01158214825F
S11306608091130190911401009729F4F0931401DF
S1130670E093130106C095838483F0931401E093FF
S113068013018091130190911401009751F0FC0122
S11306902481358130931401209313010E94520266
S11306A00895FFCFFC0180819181892B29F481E099
S11306B090E0918380830895A0910C01B0910D0185
S11306C015961C921E92149782819381009719F4B7
S11306D0B383A28306C015969C938E931497B38319
S11306E0A2838091130190911401009751F0FC01B1
S11306F02481358130931401209313010E94520206
S11307000895FFCFFC0182819381892B51F1A0913F
S11307100C01B0910D0115961C921E9214978091B4
S1130720130190911401009729F4B0931401A0933C
S1130730130108C015969C938E931497B0931401DB
S1130740A093130182819381009751F0DC011496E8
S11307502D913C911597338322830E945202089570
S1130760FFCF118210820895109212010895A1E220
S11307701A2EAA1BBB1BFD010DC0AA1FBB1FEE1F17
S1130780FF1FA217B307E407F50720F0A21BB30B62
S1130790E40BF50B661F771F881F991F1A9469F7DE
S11307A060957095809590959B01AC01BD01CF013A
S11307B00895052E97FB1EF400940E94F00357FD44
S11307C007D00E94B70307FC03D04EF40C94F00347
S11307D050954095309521953F4F4F4F5F4F089569
S11307E090958095709561957F4F8F4F9F4F089599
S11307F0DC012D923D924D925D926D927D928D928F
S11308009D92AD92BD92CD92DD92ED92FD920D93AB
S11308101D93CD93DD93FF91EF918DB78D938EB79B
S11308208D938FB78D93ED93FD9388279927099422
S1130830DC01CB0181309105811D2D903D904D90BF
S11308405D906D907D908D909D90AD90BD90CD907C
S1130850DD90ED90FD900D911D91CD91DD91ED9187
S1130860FD910D90F894FEBF0FBEEDBFED91FD918B
S10908700994F894FFCF87
S113087601000000010000000100000015018201D2
S9030000FC
