:100000000C942E000C944B000C944B000C94D202D8
:100010000C944B000C944B000C944B000C94FC0281
:100020000C944B000C944B000C944B000C944B0024
:100030000C944B000C944B000C944B000C944B0014
:100040000C944B000C944B000C944B000C944B0004
:100050000C944B000C944B000C944B0011241FBECD
:10006000CFEFD4E0DEBFCDBF11E0A0E0B1E0E6E825
:10007000F7E002C005900D92A430B107D9F723E054
:10008000A4E0B1E001C01D92AB32B207E1F70E94DB
:1000900024030C94C1030C940000CF93DF9300D091
:1000A000CDB7DEB79A8389838091000190910101D9
:1000B00006960E948003892B59F489819A81909336
:1000C00001018093000161E070E006960E94A003A8
:1000D0000F900F90DF91CF910895CF93DF9300D0D1
:1000E000CDB7DEB7F8942091040130910501232BA0
:1000F000E1F424EE31E030937C0120937B0121E593
:1001000032E03093E9012093E8012EEB32E03093A6
:100110005602209355021092C3021092C20221E0AF
:1001200030E03093050120930401209102013091C9
:1001300003013A83298321153105A1F0F9012481B6
:10014000358130930301209302019183808373836F
:10015000628315821482CF0106960E948003019764
:1001600079F501C0FFCF7894A0910001B091010111
:10017000ED91FC91119712968D919C911397099591
:10018000F894E0910001F0910101809102019091B9
:100190000301F0930301E09302019583848380912E
:1001A000060190910701009751F0FC0124813581EF
:1001B00030930701209306010E944D0001C0FFCF3C
:1001C000E981FA81369689819A8187599F4F918B6F
:1001D000808B938B828BE0910001F09101018091E3
:1001E000060190910701F0930701E09306019583C2
:1001F000848389819A810E944D0078940F900F909A
:10020000DF91CF910895F8948091000190910101C0
:100210002091060130910701FC013583248300976A
:1002200021F00E944D0078940895FFCFFC01F894CE
:1002300080819181892B29F481E090E091838083F2
:100240001DC0A0910001B091010182819381B3830F
:10025000A28315969C938E9314978091060190919A
:100260000701009751F0FC0124813581309307018B
:10027000209306010E944D0001C0FFCF789408959D
:10028000FC01F89482819381892BF9F0A0910001FF
:10029000B09101018091060190910701B09307018F
:1002A000A093060115969C938E9314978281938157
:1002B000009751F0DC0114962D913C9115973383F2
:1002C00022830E944D0003C0FFCF118210827894D8
:1002D0000895EFEEF0E0908181E089278083089512
:1002E00080EC8093E40087EB8093E50087E08093C7
:1002F000E6008FE08093E700089580E885B9809359
:100300006C008DBB08958DE08093810082E0809326
:100310006F0084E89EE1909389008093880010929A
:100320008500109284000895CF93DF93CDB7DEB798
:1003300064970FB6F894DEBF0FBECDBF90ED980F57
:100340009A3090F521E535E13A83298320E131E0C7
:100350003C832B8321EE31E13E832D8321EB31E180
:1003600038872F8320EB35E03A87298721EB34E16A
:100370003C872B8721EF34E13E872D8720E131E157
:10038000388B2F8721EF35E13A8B298B20EB35E134
:100390003C8B2B8BE82FF0E0F097EE0FFF1FEC0F5C
:1003A000FD1F8181928102C080E090E064960FB6CB
:1003B000F894DEBF0FBECDBFDF91CF910895CF93EC
:1003C000DF936630710590F5EB010E949401FE0108
:1003D000F595E7959C0144E0369527954A95E1F718
:1003E000C0FD09C0492F42954F70392F3F702F70C3
:1003F0008F7090EF09C0492F407F322F307F282F18
:10040000207F8295807F9FE0E451FF4F50815923E8
:10041000452B408345814923342B3583328539234D
:10042000232B228727859223892B8787DF91CF91E2
:1004300008954F925F926F927F928F929F92AF92A8
:10044000BF92CF92DF92EF92FF922B013C0122E00C
:1004500030E040E050E00E94610349015A0182E02F
:10046000C82ED12CE12CF12C8C149D04AE04BF04B9
:1004700080F0C301B201A70196010E943F03672BE0
:10048000682B692B89F08FEFC81AD80AE80AF80A96
:10049000EBCF8FEF881A980AA80AB80A81E08C146B
:1004A0009D04AE04BF0409F080E0FF90EF90DF9060
:1004B000CF90BF90AF909F908F907F906F905F9004
:1004C0004F900895CF92DF92EF92FF920F931F9378
:1004D000CF93DF9300D0CDB7DEB76B017C018A01EB
:1004E00024E630E040E050E00E9461032AE030E082
:1004F00040E050E00E946103B80180E3820F0E9457
:10050000DF011A82198289819A81883E934034F4EE
:1005100089819A8101969A838983F5CF0F5F1F4F56
:10052000C701B6012AE030E040E050E00E946103DC
:10053000862FB801805D0E94DF010F900F90DF9140
:10054000CF911F910F91FF90EF90DF90CF90089582
:10055000609108017091090180E090E043E050E073
:100560000E94620280910801909109010196909386
:100570000901809308010895EC01C12CD12C76016A
:10058000C394C701B6010E941902882329F0AE0165
:10059000C701B6010E9462028FEFC81AD80AE80AA2
:1005A000F80AEFCF1F920F920FB60F9211242F93DC
:1005B0003F934F935F936F937F938F939F93AF93EB
:1005C000BF93EF93FF931F9906C060E070E088EA45
:1005D00092E00E946D00FF91EF91BF91AF919F91CA
:1005E0008F917F916F915F914F913F912F910F90DC
:1005F0000FBE0F901F9018951F920F920FB60F927B
:1006000011242F933F934F935F936F937F938F9317
:100610009F93AF93BF93EF93FF9360E070E089E601
:1006200091E00E946D00FF91EF91BF91AF919F917A
:100630008F917F916F915F914F913F912F910F908B
:100640000FBE0F901F901895E1E6F0E080E88083E0
:1006500010820E9470010E947D010E94830160E06F
:1006600070E088EA92E00E946D0060E070E089E648
:1006700091E00E946D0080E090E00E94BC02A1E247
:100680001A2EAA1BBB1BFD010DC0AA1FBB1FEE1F0C
:10069000FF1FA217B307E407F50720F0A21BB30B57
:1006A000E40BF50B661F771F881F991F1A9469F7D3
:1006B00060957095809590959B01AC01BD01CF012F
:1006C0000895052E97FB1EF400940E94780357FDB1
:1006D00007D00E943F0307FC03D04EF40C9478032C
:1006E00050954095309521953F4F4F4F5F4F08955E
:1006F00090958095709561957F4F8F4F9F4F08958E
:10070000DC012D923D924D925D926D927D928D9283
:100710009D92AD92BD92CD92DD92ED92FD920D93A0
:100720001D93CD93DD93FF91EF918DB78D938EB790
:100730008D938FB78D93ED93FD9388279927099417
:10074000DC01CB0181309105811D2D903D904D90B4
:100750005D906D907D908D909D90AD90BD90CD9071
:10076000DD90ED90FD900D911D91CD91DD91ED917C
:10077000FD910D90F894FEBF0FBEEDBFED91FD9180
:060780000994F894FFCF7C
:040786000A017701EC
:00000001FF
