S0150000416C7465726E617469766520332E737265633D
S11300000C942E000C944B000C944B000C94D901CE
S11300100C944B000C944B000C944B000C94030276
S11300200C944B000C944B000C944B000C944B0020
S11300300C944B000C944B000C944B000C944B0010
S11300400C944B000C944B000C944B000C944B0000
S11300500C944B000C944B000C944B0011241FBEC9
S1130060CFEFD4E0DEBFCDBF11E0A0E0B1E0EAEE17
S1130070F6E002C005900D92A430B107D9F723E051
S1130080A4E0B1E001C01D92AB32B207E1F70E94D7
S11300902B020C9473030C940000EFEEF0E09081BB
S11300A081E089278083089580EC8093E40087EBC6
S11300B08093E50087E08093E6008FE08093E7007B
S11300C0089580E885B980936C008DBB08958DE018
S11300D08093810082E080936F0084E89EE1909396
S11300E089008093880010928500109284000895FE
S11300F0CF93DF93CDB7DEB764970FB6F894DEBF26
S11301000FBECDBF90ED980F9A3090F521E535E103
S11301103A83298320E131E03C832B8321EE31E1D2
S11301203E832D8321EB31E138872F8320EB35E0AB
S11301303A87298721EB34E13C872B8721EF34E18F
S11301403E872D8720E131E1388B2F8721EF35E180
S11301503A8B298B20EB35E13C8B2B8BE82FF0E09D
S1130160F097EE0FFF1FEC0FFD1F8181928102C0FB
S113017080E090E064960FB6F894DEBF0FBECDBF6A
S1130180DF91CF910895CF93DF93EB016630710532
S1130190D8F50E947800FE01F595E795C0FD11C0E1
S11301A0592F52955F70492F4F709C0132952295BB
S11301B02F7023273F702327322F3F708F7090EFCB
S11301C010C0592F507F9C01329522952F70232700
S11301D03F702327422F407F382F307F8295807FC6
S11301E09FE0FF27E451FF4F20812923252B208303
S11301F025812923242B258322852923232B228728
S113020027859223892B8787DF91CF9108954F9279
S11302105F926F927F928F929F92AF92BF92CF9292
S1130220DF92EF92FF920F931F93CF93DF932B01F3
S11302303C0199232CF42FEF421A520A620A720AE3
S113024075946794579447945301420122E04216EF
S113025051046104710418F1C62FD72F182F092FE8
S113026060FF2FC0C12CD12C76016894C1F80CC05A
S11302706C2F7D2F812F902FA70196010E94F102F0
S1130280672B682B692BF9F08FEFC81AD80AE80A94
S1130290F80A8C149D04AE04BF0450F705C0C12CA9
S11302A0D12C76016894C1F82FEF421A520A620ADF
S11302B0720A81E0C414D504E604F70429F080E04E
S11302C003C080E001C080E0DF91CF911F910F91C6
S11302D0FF90EF90DF90CF90BF90AF909F908F9062
S11302E07F906F905F904F9008958F929F92AF92FE
S11302F0BF92CF92DF92EF92FF92CF93DF934B01A5
S11303005C01EA0124E630E040E050E00E9413037F
S11303100F2EFAE0CF2ED12CE12CF12CF02DA701D9
S113032096010E941303BE0180E3820F0E94C30062
S11303302196C501B401A70196010E941303862FDB
S1130340BE01805D0E94C300DF91CF91FF90EF90CA
S1130350DF90CF90BF90AF909F908F900895609161
S113036004017091050180E090E043E050E00E94B8
S11303707501809104019091050101969093050106
S1130380809304010895EC01C12CD12C7601C3940F
S1130390C701B6010E940701882329F0AE01C701F5
S11303A0B6010E9475018FEFC81AD80AE80AF80A44
S11303B0EFCF1F920F920FB60F9211242F933F93FA
S11303C04F935F936F937F938F939F93AF93BF9359
S11303D0EF93FF931F9906C060E070E08FEA91E00D
S11303E00E945B02FF91EF91BF91AF919F918F911A
S11303F07F916F915F914F913F912F910F900FBE1D
S11304000F901F9018951F920F920FB60F92112400
S11304102F933F934F935F936F937F938F939F9308
S1130420AF93BF93EF93FF9360E070E08DE490E0AF
S11304300E945B02FF91EF91BF91AF919F918F91C9
S11304407F916F915F914F913F912F910F900FBECC
S11304500F901F901895E1E6F0E080E88083108209
S11304600E9454000E9461000E946700789480E01A
S113047090E00E94C301CF93DF9300D0CDB7DEB7E5
S11304809A838983809100019091010106960E94CC
S11304903203892B59F489819A81909301018093C5
S11304A0000161E070E006960E9452030F900F90E5
S11304B0DF91CF910895CF93DF9300D0CDB7DEB70E
S11304C0F8942091060130910701232BE1F424EEE6
S11304D031E030937C0120937B0121E532E03093BD
S11304E0E9012093E8012EEB32E030935602209389
S11304F055021092C3021092C20221E030E0309300
S113050007012093060120910201309103013A83EF
S11305102983232BA9F0E981FA81448155815093E1
S11305200301409302019183808373836283158264
S11305301482CF0106960E943203019779F501C017
S1130540FFCF7894A0910001B0910101ED91FC914D
S1130550119712968D919C9113970995F894E091B7
S11305600001F09101018091020190910301F09347
S11305700301E093020195838483809108019091A3
S11305800901009751F0FC01248135813093090160
S1130590209308010E943B0201C0FFCFE981FA8148
S11305A0369689819A8187599F4F918B808B938B43
S11305B0828BE0910001F0910101809108019091FA
S11305C00901F0930901E0930801958384838981EB
S11305D09A810E943B0278940F900F90DF91CF9103
S11305E00895A1E21A2EAA1BBB1BFD010DC0AA1F70
S11305F0BB1FEE1FFF1FA217B307E407F50720F088
S1130600A21BB30BE40BF50B661F771F881F991F02
S11306101A9469F760957095809590959B01AC014B
S1130620BD01CF010895052E97FB1EF400940E948E
S11306302A0357FD07D00E94F10207FC03D04EF4B1
S11306400C942A0350954095309521953F4F4F4F78
S11306505F4F089590958095709561957F4F8F4F6A
S11306609F4F0895DC012D923D924D925D926D92C3
S11306707D928D929D92AD92BD92CD92DD92ED923E
S1130680FD920D931D93CD93DD93FF91EF918DB763
S11306908D938EB78D938FB78D93ED93FD938827AC
S11306A099270994DC01CB0181309105811D2D909E
S11306B03D904D905D906D907D908D909D90AD900E
S11306C0BD90CD90DD90ED90FD900D911D91CD915B
S11306D0DD91ED91FD910D90F894FEBF0FBEEDBF3D
S10D06E0ED91FD910994F894FFCF09
S10706EA0A01770185
S9030000FC
